{
  "_format": "hh-sol-artifact-1",
  "contractName": "CasperPadSale",
  "sourceName": "contracts/CasperPadSale.sol",
  "abi": [
    {
      "inputs": [],
      "stateMutability": "nonpayable",
      "type": "constructor"
    },
    {
      "anonymous": false,
      "inputs": [
        {
          "indexed": false,
          "internalType": "address",
          "name": "investor",
          "type": "address"
        },
        {
          "indexed": false,
          "internalType": "address",
          "name": "payCurrency",
          "type": "address"
        },
        {
          "indexed": false,
          "internalType": "uint256",
          "name": "amount",
          "type": "uint256"
        }
      ],
      "name": "AddVest",
      "type": "event"
    },
    {
      "anonymous": false,
      "inputs": [
        {
          "indexed": true,
          "internalType": "address",
          "name": "previousOwner",
          "type": "address"
        },
        {
          "indexed": true,
          "internalType": "address",
          "name": "newOwner",
          "type": "address"
        }
      ],
      "name": "OwnershipTransferred",
      "type": "event"
    },
    {
      "inputs": [
        {
          "internalType": "address",
          "name": "payCurrency",
          "type": "address"
        }
      ],
      "name": "addStableCoin",
      "outputs": [],
      "stateMutability": "nonpayable",
      "type": "function"
    },
    {
      "inputs": [
        {
          "internalType": "bytes32[]",
          "name": "_proof",
          "type": "bytes32[]"
        },
        {
          "internalType": "uint256",
          "name": "amount",
          "type": "uint256"
        },
        {
          "internalType": "address",
          "name": "payCurrency",
          "type": "address"
        },
        {
          "internalType": "uint256",
          "name": "tierAmount",
          "type": "uint256"
        }
      ],
      "name": "addVest",
      "outputs": [],
      "stateMutability": "nonpayable",
      "type": "function"
    },
    {
      "inputs": [
        {
          "internalType": "address",
          "name": "",
          "type": "address"
        }
      ],
      "name": "isStableCoin",
      "outputs": [
        {
          "internalType": "bool",
          "name": "",
          "type": "bool"
        }
      ],
      "stateMutability": "view",
      "type": "function"
    },
    {
      "inputs": [],
      "name": "merkleRoot",
      "outputs": [
        {
          "internalType": "bytes32",
          "name": "",
          "type": "bytes32"
        }
      ],
      "stateMutability": "view",
      "type": "function"
    },
    {
      "inputs": [],
      "name": "owner",
      "outputs": [
        {
          "internalType": "address",
          "name": "",
          "type": "address"
        }
      ],
      "stateMutability": "view",
      "type": "function"
    },
    {
      "inputs": [],
      "name": "participants",
      "outputs": [
        {
          "internalType": "uint256",
          "name": "",
          "type": "uint256"
        }
      ],
      "stateMutability": "view",
      "type": "function"
    },
    {
      "inputs": [],
      "name": "renounceOwnership",
      "outputs": [],
      "stateMutability": "nonpayable",
      "type": "function"
    },
    {
      "inputs": [],
      "name": "saleEndTime",
      "outputs": [
        {
          "internalType": "uint256",
          "name": "",
          "type": "uint256"
        }
      ],
      "stateMutability": "view",
      "type": "function"
    },
    {
      "inputs": [],
      "name": "saleStartTime",
      "outputs": [
        {
          "internalType": "uint256",
          "name": "",
          "type": "uint256"
        }
      ],
      "stateMutability": "view",
      "type": "function"
    },
    {
      "inputs": [
        {
          "internalType": "bytes32",
          "name": "_merkleRoot",
          "type": "bytes32"
        }
      ],
      "name": "setMerkleRoot",
      "outputs": [],
      "stateMutability": "nonpayable",
      "type": "function"
    },
    {
      "inputs": [
        {
          "internalType": "uint256",
          "name": "_saleStartTime",
          "type": "uint256"
        },
        {
          "internalType": "uint256",
          "name": "_saleEndTime",
          "type": "uint256"
        }
      ],
      "name": "setSalePeriod",
      "outputs": [],
      "stateMutability": "nonpayable",
      "type": "function"
    },
    {
      "inputs": [
        {
          "internalType": "address",
          "name": "_treasuryWallet",
          "type": "address"
        }
      ],
      "name": "setTreasuryWallet",
      "outputs": [],
      "stateMutability": "nonpayable",
      "type": "function"
    },
    {
      "inputs": [],
      "name": "totalVested",
      "outputs": [
        {
          "internalType": "uint256",
          "name": "",
          "type": "uint256"
        }
      ],
      "stateMutability": "view",
      "type": "function"
    },
    {
      "inputs": [
        {
          "internalType": "address",
          "name": "newOwner",
          "type": "address"
        }
      ],
      "name": "transferOwnership",
      "outputs": [],
      "stateMutability": "nonpayable",
      "type": "function"
    },
    {
      "inputs": [],
      "name": "treasuryWallet",
      "outputs": [
        {
          "internalType": "address",
          "name": "",
          "type": "address"
        }
      ],
      "stateMutability": "view",
      "type": "function"
    },
    {
      "inputs": [
        {
          "internalType": "address",
          "name": "",
          "type": "address"
        }
      ],
      "name": "vestedAmount",
      "outputs": [
        {
          "internalType": "uint256",
          "name": "",
          "type": "uint256"
        }
      ],
      "stateMutability": "view",
      "type": "function"
    }
  ],
  "bytecode": "0x608060405234801561001057600080fd5b5061001a336100aa565b60086020527ff6ca36ec7a05f7fd59a7f2711e09342aeca1b7004b7ec9d4cfd382d44e267157805460ff199081166001908117909255738ac76a51cc950d9822d68b83fe1ad97b32cd580d6000527f4a55f44d6eea63923f9897e72b40bea055121f509830be9948b4fd1a72fbfe4080549091169091179055600680546001600160a01b031916331790556100fa565b600080546001600160a01b038381166001600160a01b0319831681178455604051919092169283917f8be0079c531659141344cd1fd0a4f28419497f9722a3daafe3b4186f6b6457e09190a35050565b610de0806101096000396000f3fe608060405234801561001057600080fd5b50600436106101005760003560e01c80637cb6475911610097578063ba1c3b9211610066578063ba1c3b921461020e578063d8402b7914610221578063ed338ff114610234578063f2fde38b1461023d57600080fd5b80637cb64759146101c45780638da5cb5b146101d7578063a8602fea146101e8578063b3c1f5d8146101fb57600080fd5b80634626402b116100d35780634626402b1461015357806355a0c9711461017e5780636c4470fb146101b1578063715018a6146101ba57600080fd5b8063199cbc54146101055780631cbaee2d146101215780632eb4a7ab1461012a578063384711cc14610133575b600080fd5b61010e60045481565b6040519081526020015b60405180910390f35b61010e60025481565b61010e60015481565b61010e610141366004610ba2565b60076020526000908152604090205481565b600654610166906001600160a01b031681565b6040516001600160a01b039091168152602001610118565b6101a161018c366004610ba2565b60086020526000908152604090205460ff1681565b6040519015158152602001610118565b61010e60055481565b6101c2610250565b005b6101c26101d2366004610cc5565b61028f565b6000546001600160a01b0316610166565b6101c26101f6366004610ba2565b6102be565b6101c2610209366004610ba2565b610370565b6101c261021c366004610cf5565b610414565b6101c261022f366004610bc3565b610449565b61010e60035481565b6101c261024b366004610ba2565b6109dc565b6000546001600160a01b031633146102835760405162461bcd60e51b815260040161027a90610d16565b60405180910390fd5b61028d6000610a77565b565b6000546001600160a01b031633146102b95760405162461bcd60e51b815260040161027a90610d16565b600155565b6000546001600160a01b031633146102e85760405162461bcd60e51b815260040161027a90610d16565b6001600160a01b03811661034e5760405162461bcd60e51b815260206004820152602760248201527f53657454726561737572793a2054726561737572792077616c6c6574206973206044820152661a5b9d985b1a5960ca1b606482015260840161027a565b600680546001600160a01b0319166001600160a01b0392909216919091179055565b6000546001600160a01b0316331461039a5760405162461bcd60e51b815260040161027a90610d16565b6001600160a01b0381166103f05760405162461bcd60e51b815260206004820181905260248201527f416464436f696e3a205061792063757272656e637920697320696e76616c6964604482015260640161027a565b6001600160a01b03166000908152600860205260409020805460ff19166001179055565b6000546001600160a01b0316331461043e5760405162461bcd60e51b815260040161027a90610d16565b600291909155600355565b60025442101561049b5760405162461bcd60e51b815260206004820152601c60248201527f416464566573743a2053616c65206973206e6f74207374617274656400000000604482015260640161027a565b6003544211156104ed5760405162461bcd60e51b815260206004820152601960248201527f416464566573743a2053616c652069732066696e697368656400000000000000604482015260640161027a565b6000831161053d5760405162461bcd60e51b815260206004820152601a60248201527f416464566573743a20416d6f756e7420697320696e76616c6964000000000000604482015260640161027a565b6001600160a01b03821660009081526008602052604090205460ff166105a55760405162461bcd60e51b815260206004820181905260248201527f416464566573743a205061792063757272656e637920697320696e76616c6964604482015260640161027a565b6040516370a0823160e01b815233600482015283906001600160a01b038416906370a082319060240160206040518083038186803b1580156105e657600080fd5b505afa1580156105fa573d6000803e3d6000fd5b505050506040513d601f19601f8201168201806040525081019061061e9190610cdd565b101561066c5760405162461bcd60e51b815260206004820152601b60248201527f416464566573743a204e6f7420656e6f7567682062616c616e63650000000000604482015260640161027a565b604051636eb1769f60e11b815233600482015230602482015283906001600160a01b0384169063dd62ed3e9060440160206040518083038186803b1580156106b357600080fd5b505afa1580156106c7573d6000803e3d6000fd5b505050506040513d601f19601f820116820180604052508101906106eb9190610cdd565b10156107395760405162461bcd60e51b815260206004820152601c60248201527f416464566573743a204e6f7420656e6f75676820617070726f76616c00000000604482015260640161027a565b604080513360601b6bffffffffffffffffffffffff1916602080830191909152603480830185905283518084039091018152605490920190925280519101206107829085610ac7565b6107ce5760405162461bcd60e51b815260206004820152601c60248201527f416464566573743a20566572696669636174696f6e206661696c656400000000604482015260640161027a565b3360009081526007602052604090205481906107eb908590610d4b565b11156108395760405162461bcd60e51b815260206004820152601f60248201527f416464566573743a2045786365656473206d6178696d756d20616d6f756e7400604482015260640161027a565b6006546001600160a01b031661089d5760405162461bcd60e51b815260206004820152602360248201527f416464566573743a2054726561737572792077616c6c657420697320696e76616044820152621b1a5960ea1b606482015260840161027a565b6006546040516323b872dd60e01b81523360048201526001600160a01b03918216602482015260448101859052908316906323b872dd90606401602060405180830381600087803b1580156108f157600080fd5b505af1158015610905573d6000803e3d6000fd5b505050506040513d601f19601f820116820180604052508101906109299190610ca5565b50336000908152600760205260409020546109505760055461094c906001610d4b565b6005555b336000908152600760205260408120805485929061096f908490610d4b565b9250508190555082600460008282546109889190610d4b565b9091555050604080513381526001600160a01b03841660208201529081018490527f57af742254fea22ad7c5044fc01ee424cda3396f001887a8f4cf4ce7e1ab6a649060600160405180910390a150505050565b6000546001600160a01b03163314610a065760405162461bcd60e51b815260040161027a90610d16565b6001600160a01b038116610a6b5760405162461bcd60e51b815260206004820152602660248201527f4f776e61626c653a206e6577206f776e657220697320746865207a65726f206160448201526564647265737360d01b606482015260840161027a565b610a7481610a77565b50565b600080546001600160a01b038381166001600160a01b0319831681178455604051919092169283917f8be0079c531659141344cd1fd0a4f28419497f9722a3daafe3b4186f6b6457e09190a35050565b600082815b8351811015610b7a576000848281518110610af757634e487b7160e01b600052603260045260246000fd5b6020026020010151905080831015610b3a576040805160208101859052908101829052606001604051602081830303815290604052805190602001209250610b67565b60408051602081018390529081018490526060016040516020818303038152906040528051906020012092505b5080610b7281610d63565b915050610acc565b50600154149392505050565b80356001600160a01b0381168114610b9d57600080fd5b919050565b600060208284031215610bb3578081fd5b610bbc82610b86565b9392505050565b60008060008060808587031215610bd8578283fd5b843567ffffffffffffffff80821115610bef578485fd5b818701915087601f830112610c02578485fd5b8135602082821115610c1657610c16610d94565b8160051b604051601f19603f83011681018181108682111715610c3b57610c3b610d94565b604052838152828101945085830182870184018d1015610c5957898afd5b8996505b84871015610c7b578035865260019690960195948301948301610c5d565b509850508801359550610c95925050604087019050610b86565b9396929550929360600135925050565b600060208284031215610cb6578081fd5b81518015158114610bbc578182fd5b600060208284031215610cd6578081fd5b5035919050565b600060208284031215610cee578081fd5b5051919050565b60008060408385031215610d07578182fd5b50508035926020909101359150565b6020808252818101527f4f776e61626c653a2063616c6c6572206973206e6f7420746865206f776e6572604082015260600190565b60008219821115610d5e57610d5e610d7e565b500190565b6000600019821415610d7757610d77610d7e565b5060010190565b634e487b7160e01b600052601160045260246000fd5b634e487b7160e01b600052604160045260246000fdfea264697066735822122022db865e66ed3e0e92502661692cd5bd9558f440b9615518e6e1bedb1f46c03b64736f6c63430008040033",
  "linkReferences": {},
  "deployedLinkReferences": {}
}